:1003DC00534C45455000484F5400434F4C44004843
:1003EC00454152540057415645004552520049442C
:1003FC004C450081838587898B8D80828486888A91
:10040C008C53494D2054454D5020434C4F434B0089
:10041C0053554E004D4F4E00545545005745440022
:10042C005448550046524900534154003E514945E9
:10043C003E00427F400042615149462141454B31CB
:10044C001814127F1027454545393C4A494930015B
:10045C00710905033649494936064949291E7E1159
:10046C0011117E7F494949363E414141227F41412C
:10047C00221C7F494949417F090909013E414949EB
:10048C007A7F0808087F00417F41002040413F01EE
:10049C007F081422417F404040407F020C027F7F46
:1004AC000408107F3E4141413E7F090909063E4147
:1004BC0051215E7F09192946464949493101017F7D
:1004CC0001013F4040403F1F2040201F3F4038402B
:1004DC003F631408146307087008076151494543CA
:100BB800101A4C554D49202030302F30302F30300E
:100BC8000000064030303A3030000946543A202DB3
:100BD8002D2E2D43000B35303020412049444C4503
:100BE8000000022A0000012D00012CFF0151FF0125
:100BF8005300011900015201011801014FFF015072
:010C080000EB
:100F0D00EF1FAC0670011E4C600700000000008052
:020F1D00EF22C1
:070DD400120F747F057E0081
:100DDB00E4FDFCC3ED9FEC9E5015E4FBFA0BBB004E
:100DEB00010AEB646E4A70F50DBD00010C80E42224
:0F0F5000C2B5C2B6D2B4D2B77F057E00020F0D74
:100E8400EF24FF92A6C2A5C2A78D807F017E001227
:0C0E94000DDBD2A7120DDBC2A7020DDBA4
:070F7400AD07E4FF020E844B
:070F7B00AD077F01020E84A7
:100DAB00D2B27F327E00120DDB7F30120DD47F0C5E
:100DBB00120DD47F01120DD47F34120DD47F361255
:090DCB000F747F057E00020DDBB0
:100D8100A907E9541F4480FF120F74E9C39420504E
:100D9100047F8080027F88120F74E4F9740829F8B7
:0A0DA100E6FF120F7B09B910F322E0
:0A0F6A007F107808E4F608DFFC228F
:100E2200EFC39480501FEF131313541F2408F8C00C
:100E320000E6FEEF5407FFF87480088002C313D85F
:060E4200FC4ED000F62278
:100DFB00EFC394805020EF131313541F2408F8C033
:100E0B0000E6FEEF5407FFF87480088002C313D886
:070E1B00FCF45ED000F6229A
:100EB900EDC3948040027D7FAC07ECD39D5008AF11
:080EC90004120E220C80F3223A
:100F3000AC07ECD39D5008AF04120DFB0C80F322DC
:10078400EDC3940540037F0022EFC394304010EF83
:10079400D39439500AEF3395E0FE9003488014EF68
:1007A400C39441402CEFD3945A5026EF3395E0FE86
:1007B40090032575F005EF1206B5EE75F005A42536
:1007C40083F583E5822DF582E43583F583E493FF95
:1007D40022EF24D3602114601414602824F16040B3
:1007E40024047053BD02037F24227F0022BD02042F
:1007F4007F4080027F0022EDC3940450047F088070
:10080400027F0022EDC3940550137E007440A805B6
:10081400088006CEA2E713CE13D8F8FF227F002269
:10082400BD01037F2222BD02047F148009BD03049D
:0A0834007F0880027F00227F00226F
:10083E008B6B8F72E56FC39D50030208E9E56B75F4
:10084E00F007A42DFFE56FC39F40030208E9AF0533
:10085E00C3E56F9FFFE49400FEAD6B7C0012064172
:10086E008F70AB6CAA6DA96E1205F4606EE572C343
:10087E00947F5067E4F571AB6CAA6DA96E1205F406
:10088E00FFAD71120784EFFD7C007E007401A8702D
:10089E00088005C333CE33CED8F9FFEE5CFEEF5D94
:1008AE004E6018E4FDEDC3956B5010E571856BF04D
:1008BE00A425722DFF120E220D80EA0571E571C37B
:1008CE00940540B3E56B75F006A42572F5727401BC
:0C08DE00256EF56EE4356DF56D80872207
:1008EA008F6FE56EC39D5003020987EB75F007A46D
:1008FA002DFFE56EC39F4003020987AF05C3E56E6E
:10090A009FFFE49400FEEBFD7C00120641A90785D7
:10091A006D82856C83E4936064E56FC3947F505D58
:10092A00E4FC856D82856C83E493FFAD0412078431
:10093A00EFF5827583007E007401A801088005C363
:10094A0033CE33CED8F9FFEE5583FEEF55824E6093
:10095A0015E4FDEDC39B500EEC8BF0A4256F2DFF23
:10096A00120E220D80ED0CBC05B8EB75F006A4251D
:0E097A006FF56F056DE56D7096056C8092222D
:090ED1007D10120EDA7D1C7F1861
:0B0EDA00EF2406FFED2406FD020EB918
:0B0F5F00EF2406FFED2406FD020F301A
:100003008D69A907EB24F4FFE434FFAB07FAC3645B
:1000130080948050030203DBD3EB9427EA6480943B
:100023008040030203DBEB4A70077D1E7F1B120E29
:10003300DAEB64014A700A120ED67D227F1E120E7D
:10004300DAEB64024A700E7D1A7F17120EDA7D23F3
:100053007F20120EDAEB64034A70077D217F1912A9
:100063000EDAC3EB9404EA64809480404ED3EB949D
:100073001DEA648094805043C3EB9408EA6480943F
:10008300805013EB75F003A4FFC3741B9FF56AEF55
:10009300240DF56B801EC3EB9418EA6480948050A2
:1000A30008756A05756B23800BEB24EDF56AC37441
:1000B3003B9BF56BAD6BAF6A120EDAC3EB940AEAA6
:1000C30064809480403DD3EB9419EA64809480501B
:1000D30032C3EB940DEA64809480500AC374179B77
:1000E300FFEB24118019C3EB9417EA6480948050CA
:1000F300067D1E7F0A8009EB24F4FFC374349BFD45
:10010300120F5FEB640A4A700E7D127F0A120EDA39
:100113007D1E7F18120EDAEB640B4A70057F0A12FC
:100123000ED1EB640C4A700E7D0D7F0A120EDA7D40
:100133001A7F17120EDAEB641D4A70077D167F12C1
:10014300120EDAEB641E4A70077D197F0F120EDA66
:10015300EB641F4A700E7D117F0A120EDA7D1E7F3B
:1001630017120EDAC3EB9420EA648094804012D312
:10017300EB9425EA6480948050077D207F08120E5B
:10018300DAEB64264A70077D1E7F0A120EDAEB64EF
:10019300274A70077D1B7F0D120EDAEB64214A603C
:1001A30006EB64224A70077D167F12120F5FEB6421
:1001B300234A70077D157F13120EDAE9640170522A
:1001C300EB64114A700E7D107F0D120EDA7D1B7FDA
:1001D30018120EDAEB64164A70077D167F12120EA0
:1001E300DAEB640E4A70077D257F22120EDAEB6488
:1001F3000D4A70077D267F24120EDAEB640A4A60EB
:10020300030203DBE56970030203DB7D277F26021C
:1002130003D8E964026008E9640660030202BFEBE5
:1002230064104A6006EB64134A700E7D107F0D1252
:100233000EDA7D1B7F18120EDAEB64114A6006EBAF
:1002430064124A700E7D0F7F0E120EDA7D1A7F192B
:10025300120EDAEB64164A70077D167F12120EDA5D
:10026300B90222C3EB940CEA648094804017D3EB69
:10027300940FEA64809480500CEB24F4FFC3742B36
:100283009FFF120E22E9640660030203DBC3EB94B3
:100293000CEA6480948050030203DBD3EB9411EAED
:1002A3006480948040030203DB7F2C120E22EB64F4
:1002B300114A60030203DB7F2B020E22E964047000
:1002C3006EEB64104A701C7D0D7F0C120EDA7D10EC
:1002D3007F0F120EDA7D197F18120EDA7D1C7F1B39
:1002E300120EDAEB64114A70057F0C120ED1EB6427
:1002F300124A700E7D0F7F0D120EDA7D1B7F1912CD
:100303000EDAEB64134A700A7F14120E227F201256
:100313000E22EB64164A70077D177F11120EDAEB7B
:1003230064174A60030203DB7D167F120203D8EBD6
:1003330064114A7022E97011E569600D7D107F0D2B
:10034300120EDA7D1B7F18800B7D0F7F0E120EDAE3
:100353007D1A7F19120EDAEB64154A700A7F1112A7
:100363000E227F17120E22EB64164A70077D167F4A
:1003730012120EDAB9031AEB641B4A6006EB641D12
:100383004A700E7D037F01120EDA7D277F25120E40
:10039300DAE964057042C3EB9415EA648094804003
:1003A30019D3EB941BEA64809480500EEB24EBC3C7
:1003B30013FFC374279FFF120E22EB64144A7007C6
:1003C3007D287F26120EDAEB64134A700BE5696011
:0903D300077D2A7F28120EDA22B0
:1006C1008D67EFD395674003020783E567943F4049
:1006D1000375673F8F68E568D39567400302078319
:1006E100120F6AE568600F640A600BE568643460A4
:1006F10005E568B43F097D7FE4FF120EB9800AE485
:10070100FF120E227F7F120E22756C00756D00752F
:100711006E1A85686F7B017D027F0412083EAB680B
:10072100E4FDAF50120003756C00756D00756E40ED
:1007310085686F7B027D0E7F3C12083E756C0075EB
:100741006D00756E4685686F7B017D207F3C1208C8
:100751003E756C00756D00756E3585686F7B017D2A
:100761002A7F3C12083E756C04756D0D85686E7BA1
:10077100017D377F041208EAAF68120D8105680216
:0307810006D72276
:070F82007D3FE4FF0206C100
:050EE500E557543FFF3A
:0F0EEA00EFC4540F75F00AA4FEEF540F2EFF2231
:100E4800AC07120EEAEC540FD39409500FECC454BB
:0F0E58000F94095007EF9D50037F01227F002266
:100D2000C2B5C2B600D2B500E4FEEF1392B4EFC371
:100D300013FFD2B600C2B6000EBE08EEE4FEED13FD
:100D400092B4EDC313FDD2B600C2B6000EBE08EEDB
:050D5000C2B5D2B4227F
:100C5900E4FEC2B5C2B600D2B500FDEF1392B4EFFF
:100C6900C313FFD2B600C2B6000DBD08EED2B4E47C
:100C7900FDA2B4E433FFC43333335480FCEEC31311
:100C89004CFED2B600C2B6000DBD08E5C2B500D211
:0B0C9900B600C2B400D2B400AF0622C7
:100AFB00E55420E757547FFF7D3B120E48EF604CC7
:100B0B00E555547FFF120E48EF6041E556543FFF09
:100B1B007D17120E48EF6034E557543FFF7D1F12CF
:100B2B000E48EF6027120EE5EFD39400401EE558F8
:100B3B00541FFF7D0C120E48EF6011E558541FFF38
:0F0B4B00120EEAEFD3940040037F01227F0022B5
:100B5A00E4FBEB9003FF93FF120C5974542BF8A695
:100B6A00070BBB07ED120AFBEF7002FF22E5545494
:100B7A007FFF120EEA8F2EE555547FFF120EEA8F81
:100B8A002FE556543FFF120EEA8F30120EE58F31D1
:100B9A00E558541FFF120EEA8F32E5595407FF1227
:0E0BAA000EEA8F33AF5A120EEA8F347F01220B
:100CEA00E4F567F568756912756A27756B05756CA1
:100CFA0003756D26FD7F8E120D20E4FCEC90040630
:100D0A0093FF74672CF8E6FD120D200CBC07ED7DED
:060D1A00807F8E020D2017
:100F4000120B5A120AFBEF7006120CEA120B5A220D
:100D5500E52E75F01484AFF0EFD3940A40047414B3
:100D65009FFFEF24F0FFE4338FF0120696E4F52C95
:0C0D7500F551F553F5197552017F01226C
:100EA000ED75F00A84243012060DED75F00A84E524
:090EB000F0243090000102061F3D
:100E67007B007A007920AD34120EA07A007923AD89
:0D0E770032120EA07A007926AD31020EA0D5
:100EF9007B007A007940AD30120EA07A007943ADBB
:040F09002F020EA005
:100A1400E52D701275494E754A2F754B41754C2062
:100A2400754D20F54E22C3E52A64809480501075DC
:100A3400482DC3E4952BFFE4952AFAAB078007758C
:100A44004820AA2AAB2BD3EB94E7EA940340047A18
:100A5400037BE77C007D0AAF03AE02120641EFC3BD
:100A6400940A400AEF75F00A842430FE80027E2046
:100A74008E49EF75F00A84E5F02430F54A754B2E63
:100A84007C007D0AAF03AE02120641ED2430F54C22
:070A9400754D43E4F54E220D
:100CA400EF24FE601714601B14601F14602314608B
:100CB400272405702A7BFF7A0379DC227BFF7A03E1
:100CC40079E2227BFF7A0379E6227BFF7A0379EBD0
:100CD400227BFF7A0379F1227BFF7A0379F6227B68
:060CE400FF7A0379FA22F9
:100C0A00E52D7017E52E75F00384E5F014600604EF
:100C1A0070067F00227F05227F0422C3E52B942CD5
:100C2A00E52A6480948140037F0222D3E52B9496BF
:100C3A00E52A6480948050037F0322E530C3941729
:0F0C4A005007E530C3940750037F01227F00223B
:100A9B007E057B007A007935AD2E120EA0753720BE
:100AAB00753841753920AF50120CA48B678A688951
:100ABB0069AB67AA68A9691205F4601FEEC3940AB3
:100ACB0050190569E5697002056814F91205F4FF00
:100ADB00AD060E74352DF8A60780D6EEC3940A50DA
:100AEB000BAF060E74352FF8762080EFE4F53F221E
:100F1F00120E67120EF9120A14120C0A8F50020ADF
:010F2F009B26
:1004EC00755B0AE4F55CF55DF563F564F565F56639
:1004FC00120F50120DAB120F407B007A00792A12AA
:10050C000D558F2D120F1F120F827F147E00120DAE
:10051C00DB055BE55BC3940A4042E4F55B852E5E2C
:10052C0085345F853260853161A930AA2F120B5A50
:10053C00EF6029E52E655E6003755D01E534B55FFE
:10054C000BE532B56006E53165616003756301E565
:10055C0030B50105E52F6A6003756401055CE55C47
:10056C00C394644028E4F55CAE2DAD2BAC2AFB7A29
:10057C0000792A120D558F2DE52DB5060AE52B6D48
:10058C007003E52A6C6006756501755D01E55D70AB
:10059C0003020516855062120F1FE5506562600359
:1005AC00756601E56360077D087F021206C1E5648C
:1005BC0060077D1B7F0E1206C1E56560077D267FF7
:1005CC00201206C1E56660077D337F0C1206C1E57B
:1005DC006670077D307F2A1206C1E4F563F564F579
:0805EC0065F566F55D020516D8
:030000000209886A
:0C098800787FE4F6D8FD7581720209CF7B
:1005F400BB010689828A83E0225002E722BBFE0205
:09060400E32289828A83E4932237
:10060D00BB010689828A83F0225002F722BBFE01CC
:02061D00F322C6
:10061F00F8BB010DE58229F582E5833AF583E8F011
:10062F00225006E92582C8F622BBFE05E92582C8BD
:02063F00F222A5
:10064100BC000BBE0029EF8DF084FFADF022E4CC9D
:10065100F875F008EF2FFFEE33FEEC33FCEE9DEC66
:10066100984005FCEE9DFE0FD5F0E9E4CEFD22EDAC
:10067100F8F5F0EE8420D21CFEADF075F008EF2FF6
:10068100FFED33FD4007985006D5F0F222C398FDE7
:050691000FD5F0EA2284
:10069600BB010A89828A83F0E5F0A3F0225006F7AF
:0F06A60009A7F01922BBFE06F3E5F009F31922AC
:0C06B500A42582F582E5F03583F5832250
:100994000204ECE493A3F8E493A34003F68001F289
:1009A40008DFF48029E493A3F85407240CC8C33364
:1009B400C4540F4420C8834004F456800146F6DF33
:1009C400E4800B0102040810204080900BB8E47E00
:1009D400019360BCA3FF543F30E509541FFEE49328
:1009E400A360010ECF54C025E060A840B8E493A3EF
:1009F400FAE493A3F8E493A3C8C582C8CAC583CA1A
:100A0400F0A3C8C582C8CAC583CADFE9DEE780BED1
:010C090000EA
:00000001FF
